:040000000DEF00F010
:0400080023EF0BF0E7
:06001800FF0033EF0EF0C3
:10160000008C1A0000000000000000000000000034
:1016100000000000000000000000000000000000CA
:10162000000000000000000000BE1CA21C861C0080
:1016300000361A000000000000000000000000005A
:10164000000000000000FAC42DF5FBC42EF5A7AE83
:101650002CEF0BF02EEF0BF039EF0BF0B2AE33EFB7
:101660000BF035EF0BF039EF0BF0A0EC0EF0B7EF0D
:101670000BF0AEA63EEF0BF040EF0BF04BEF0BF094
:10168000B9A645EF0BF047EF0BF04BEF0BF08CECEE
:101690000CF0B7EF0BF0AEA050EF0BF052EF0BF0E9
:1016A0005DEF0BF0B9A057EF0BF059EF0BF05DEFCA
:1016B0000BF0C9EC0EF0B7EF0BF0AEA462EF0BF03D
:1016C00064EF0BF06FEF0BF0B9A469EF0BF06BEF69
:1016D0000BF06FEF0BF0D4EC0CF0B7EF0BF0AEA209
:1016E00074EF0BF076EF0BF081EF0BF0B9A27BEF0C
:1016F0000BF07DEF0BF081EF0BF0B5EC0EF0B7EFD8
:101700000BF0A8A486EF0BF088EF0BF093EF0BF033
:10171000B3A48DEF0BF08FEF0BF093EF0BF06FECAA
:101720000DF0B7EF0BF0A8A298EF0BF09AEF0BF0CB
:10173000A5EF0BF0B3A29FEF0BF0A1EF0BF0A5EF1D
:101740000BF0FAEC0EF0B7EF0BF0A8AAAAEF0BF033
:10175000ACEF0BF0B7EF0BF0B3AAB1EF0BF0B3EFB8
:101760000BF0B7EF0BF0F6EC0EF0B7EF0BF02EC569
:10177000FBF42DC5FAF411000301F39FF96B1F0E62
:10178000FA6F0101106B116B126B136B146B010E6E
:101790000301FB6FD96BDA6B200EDB6F4E0EDC6F33
:1017A000DF6BE06BE36BE46BE56BE66B200EE76FE2
:1017B000EA6BEB6B020EEC6F3B0EED6FEE6BEF6BBB
:1017C000F06BF16BF26BF39DF46B1B0EF56F120E69
:1017D000F66FF76BF86BFD6BFB6BD96BDA6B200E5A
:1017E000DB6F4E0EDC6FDF6BE06BE36BE46BE56B86
:1017F000E66B200EE76FEA6BEB6B010EEC6F3B0EB6
:10180000ED6FEE6BEF6BF06BF16BF26BF39DF46BC6
:101810001B0EF56F120EF66FF76BF86BFC6B000E7C
:10182000226E000E236E000E206E000E216E000E42
:101830001E6E000E1F6EB394A884B392A882B39A52
:10184000A88AB39CA89CB39EA89E940EF36F120026
:101850000101406B416B180E426F436B446B456B4B
:101860000401026B0A6B180E126F1A6B226B2A6B43
:1018700001014869EF0E496F670E4A6F4B690F0E01
:101880004C6F4D69FE0E0401006FCF0E086F670E9E
:10189000106F1869070E206F2869010E016F096B20
:1018A000116B196B216B296B03690B6913691B6938
:1018B000070E236F2B6904690C6914691C690F0EEC
:1018C000246F2C690201866B856B886B876B0D0E0C
:1018D000746F180E0D6F130E716F200E146F140EAF
:1018E000706F210E156F0401056B010E066F076BFB
:1018F0003D6B3E6B3F6B0D6B0E6B0F6B156B166B81
:10190000176B256B266B276B020E2F6E1E0E306E2B
:10191000DAEC0EF0A78E1200020197AB92EF0CF0FA
:1019200094EF0CF09BEF0CF0030E0D6E979BB9EC4F
:101930000DF0D2EF0CF098A7A0EF0CF0A2EF0CF096
:10194000B0EF0CF094ABA7EF0CF0A9EF0CF0B0EFF8
:101950000CF0010E0D6E9799939D9487D2EF0CF0C9
:1019600098A7B5EF0CF0B7EF0CF0C5EF0CF094AB07
:10197000BCEF0CF0BEEF0CF0C5EF0CF0020E0D6EDC
:101980009799939D9487D2EF0CF097ADCAEF0CF026
:10199000CCEF0CF0D1EF0CF0030E0D6E979DD2EF53
:1019A0000CF097990D50120002019BA5DAEF0CF094
:1019B000DCEF0CF0E7EF0CF09AA5E1EF0CF0E3EFB1
:1019C0000CF0E7EF0CF01FEC0EF01AEF0DF09BAFF0
:1019D000ECEF0CF0EEEF0CF008EF0DF09AAFF3EF38
:1019E0000CF0F5EF0CF008EF0DF00C50D8B4FBEF55
:1019F0000CF0FDEF0CF004EF0DF00C6A9A919A9F39
:101A00000BEC0EF01AEF0DF0939D9487E3EF0CF0C2
:101A10009BA30DEF0DF00FEF0DF01AEF0DF09AA351
:101A200014EF0DF016EF0DF01AEF0DF0939D9A9351
:101A30001AEF0DF01200040E0201936F800E946FE6
:101A4000080E956F966B010E9E6F9A6B9B6B976B52
:101A50008B6B8C6B7F0E9D6F9F6BABEC0EF002015E
:101A60009B919B95938F050EE82EFED700000000FA
:101A70000000000000000000000002019A919A9509
:101A80009B85000E0E6E000E0F6E12000201B86BE9
:101A9000BA6BBC6BB00EBE6F800EBF6FC06B8A0E90
:101AA000C16FC26B2E0EC36FC46B800EC56FC66B49
:101AB000000E2F6E000E306E5FEC0EF0000E2F6EDB
:101AC000000E306E51EC0EF0000E2F6E000E306ED8
:101AD00043EC0EF0000E176E000E166E120028502A
:101AE000D8A475EF0DF077EF0DF07FEF0DF087ECD8
:101AF0000EF029C526F52AC527F5010E286E280403
:101B0000D8A485EF0DF087EF0DF08EEF0DF087EC88
:101B10000EF029C524F52AC525F5286A2850F2ECCF
:101B20000EF02850F2EC0EF0B3941200FBC331F526
:101B3000A3EF0DF0A882B8EF0DF0A88AB8EF0DF072
:101B4000A882B8EF0DF031502F6E306A3050000A85
:101B5000D8B4ADEF0DF0A0EF0DF02F50000AD8B4BF
:101B60009AEF0DF0010AD8B49DEF0DF0A0EF0DF043
:101B7000120002019A6B979B979D9799D2EC0EF0F9
:101B80000201996B9985939FBFEC0EF002019B9126
:101B90009B95938F050EE82EFED7000000000000F5
:101BA000000000000000000002019A919A959B85B8
:101BB0001200D69AB390D680000E2F6E000E306EB3
:101BC000E9EC0EF0B890D682000E2F6E000E306E4B
:101BD000E4EC0EF0BC90D684000E2F6E000E306E3A
:101BE000DFEC0EF0120032503310D8B4FAEF0DF0E3
:101BF000FCEF0DF008EF0EF002D808EF0EF0050034
:101C0000FA6E3250FD6E3350FE6EFF6AFA501200CB
:101C10000401079112000A500B10D8B412EF0EF015
:101C200014EF0EF019EF0EF00B5002018C6F0AC585
:101C30008BF2D880023402018E6F938B1200016AFE
:101C4000000E036E0268000E046E000E056E000E9C
:101C5000086E000E096E02019A6B979B979D9799EB
:101C6000996B9985120001EE01F1280EEE6AE806E3
:101C7000FDE10401080E5D6F000E5E6F000E5F6FE8
:101C800000016DEF0EF02F503010D8B44AEF0EF077
:101C90004CEF0EF050EF0EF02FC510F530C511F5DA
:101CA00012002F503010D8B458EF0EF05AEF0EF04B
:101CB0005EEF0EF02FC512F530C513F512002F5050
:101CC0003010D8B466EF0EF068EF0EF06CEF0EF047
:101CD0002FC514F530C515F512007AEC0EF096EC10
:101CE0000DF02850EEEC0EF0FEEC0EF076EF0EF05C
:101CF0000DEF00F094EC0EF028EC0CF0BCEC0BF0C7
:101D00001BEC0DF046EC0DF0D9EC0DF012000301C8
:101D1000EA51EBC32BF52C6A2BC52CF52B6A2B1043
:101D2000296E2C502A6E1200600E0001AD6FAF6B51
:101D3000B36B080EB16FB06BAC6B0401586B120043
:101D4000040107A1A6EF0EF0A8EF0EF0AAEF0EF027
:101D5000F3EC0DF01200AE84AE86AE80AE820201CE
:101D60009B859B839B8F9781120004C5D9F405C581
:101D7000DAF4DF5002018A6F044A052A1200AE84A9
:101D8000AE86AE80AE8202019B859B839B8F97813E
:101D9000120008C5D9F409C5DAF489C2DFF4084A8B
:101DA000092A1200AE94AE96AE90AE9202019B6BE1
:101DB000976B12002FC532F530C533F512002FC5D1
:101DC00018F530C519F512002FC51AF530C51BF5E9
:101DD00012002FC51CF530C51DF512002F6E2FC542
:101DE000ECF31200296E29C5ECF31200B39A01013D
:101DF000528F1200B3920101528F12000301F3813E
:081E000012000101529F1200C3
:020000040030CA
:0B0000008FFFF7FF9FFF7FFFFFFFFF58
:00000001FF
