:040000000DEF00F010
:040008006AEF1DF08E
:06001800FF0049EF1FF09C
:10160000003A3C000000001C400000C23E00000008
:1016100000000000000000000000000000000000CA
:10162000000000000000000000643F483F2C3F0025
:1016300000706F6D7061313A20252E32660A00709D
:101640006F6D7061323A20252E32660A00696E662F
:10165000006E616E000005018A6B62C58BF563C583
:101660008CF564C58DF565C58EF58EBF3CEF0BF02E
:101670003AEF0BF050EF0BF0010E8A6F8BC503F5BC
:101680008CC504F58DC505F58EC506F5FAEC1EF082
:1016900003C58BF504C58CF505C58DF506C58EF51E
:1016A000000E0501906F000E8F6FBFC57AF5C0C5A3
:1016B0007BF58A51D8B45FEF0BF061EF0BF075EF5B
:1016C0000BF08A51D8A467EF0BF069EF0BF06FEFC6
:1016D0000BF0000E706F2B0E6F6F73EF0BF0000EA0
:1016E000706F2D0E6F6F6FC58AF58BC503F58CC5B6
:1016F00004F58DC505F58EC506F50FEC1BF003044A
:101700000410D8A486EF0BF088EF0BF0B9EF0BF0C4
:1017100005018A51D8B48FEF0BF091EF0BF09AEFDF
:101720000BF08AC500F67A07D8A07B07000E906FF1
:10173000010E8F6F000E8F25036E060E9021046E32
:101740004D0E056EDCEC1EF00501FD0E7A27FF0E36
:101750007B2360C515F561C516F5000E176E060EE4
:10176000186E7AC519F57BC51AF5BBEC1DF020EF94
:1017700010F08BC503F58CC504F58DC505F58EC538
:1017800006F50FEC1BF003500410D8A4CAEF0BF0C1
:10179000CCEF0BF0EAEF0BF005018A51D8B4D3EF90
:1017A0000BF0D5EF0BF0DEEF0BF08AC500F67A07F1
:1017B000D8A07B07000E906F010E8F6F000E8F2553
:1017C000036E060E9021046E510E056EDCEC1EF0C9
:1017D000A4EF0BF0000E0501916F000E926F800ECA
:1017E000936F3F0E946F000E796F000E786F8BC56C
:1017F00003F58CC504F58DC505F58EC506F5000EFF
:10180000076E000E086E000E096E000E0A6E15ECD3
:101810001DF0D8B00EEF0CF010EF0CF0EFEF0CF065
:101820001DEF0CF07CC591F57DC592F57EC593F555
:101830007FC594F50501784B792B91C515F592C5B7
:1018400016F593C517F594C518F5000E196E000E20
:101850001A6E200E1B6E410E1C6E7CEC12F015C52C
:101860007CF516C57DF517C57EF518C57FF5050114
:101870007C518B5D036E7D518C59046E7E518D5968
:10188000056E7F518E59066EF2EC1DF006BE54EFC8
:101890000CF006500510041009E1020E035CD8A0FC
:1018A00054EF0CF056EF0CF012EF0CF07CC52EF557
:1018B0007DC52FF57EC530F57FC531F58BC532F579
:1018C0008CC533F58DC534F58EC535F58DEC1AF024
:1018D000D8A06DEF0CF06FEF0CF012EF0CF00501DB
:1018E00091518B5D036E92518C59046E93518D59B9
:1018F000056E94518E59066EF2EC1DF006BE8EEF09
:101900000CF006500510041007E1020E035CD8B07D
:101910008CEF0CF08EEF0CF0D6EF0CF091C58BF540
:1019200092C58CF593C58DF594C58EF5EFEF0CF04F
:1019300091C52EF592C52FF593C530F594C531F5B7
:10194000000E326E000E336E200E346E410E356E78
:101950008FEC14F02EC591F52FC592F530C593F597
:1019600031C594F505017807D8A0790791518B5DB1
:10197000036E92518C59046E93518D59056E94519A
:101980008E59066EF2EC1DF006BED4EF0CF0065038
:101990000510041007E1020E035CD8B0D2EF0CF082
:1019A000D4EF0CF0D6EF0CF08EEF0CF08BC52EF5CB
:1019B0008CC52FF58DC530F58EC531F591C532F545
:1019C00092C533F593C534F594C535F58DEC1AF011
:1019D000D8A0EDEF0CF0EFEF0CF098EF0CF066C52F
:1019E00072F572C573F50501C2BFF9EF0CF0FBEF9C
:1019F0000CF001EF0DF0C1C56BF5C2C56CF505EF3C
:101A00000DF0000E6C6F060E6B6F6BC576F56CC536
:101A100077F5764B772B660E7319D8A412EF0DF07D
:101A200014EF0DF034EF0DF079BF1BEF0DF019EF4F
:101A30000DF027EF0DF0000E916F000E926F800EEB
:101A4000936F3F0E946F000E796F000E786F670EE4
:101A50007219D8B42EEF0DF030EF0DF034EF0DF019
:101A60007851762779517723000E816F000E806FB1
:101A70008BC582F58CC583F58DC584F58EC585F53E
:101A800091C57CF592C57DF593C57EF594C57FF52E
:101A9000C5EF0DF082C52EF583C52FF584C530F551
:101AA00085C531F591C532F592C533F593C534F549
:101AB00094C535F58FEC14F02EC547F52FC548F5C4
:101AC00030C549F531C54AF562EC17F047C586F5D2
:101AD00048C587F549C588F54AC589F586C503F522
:101AE00087C504F588C505F589C506F50AEC1AF021
:101AF00003C574F504C575F582C52EF583C52FF5AC
:101B000084C530F585C531F586C519F587C51AF543
:101B100088C51BF589C51CF591C515F592C516F547
:101B200093C517F594C518F57CEC12F015C532F580
:101B300016C533F517C534F518C535F597EC1EF005
:101B40002EC582F52FC583F530C584F531C585F5E1
:101B500091C52EF592C52FF593C530F594C531F595
:101B6000000E326E000E336E200E346E410E356E56
:101B70008FEC14F02EC591F52FC592F530C593F575
:101B800031C594F50501804B812B7651805D8151E3
:101B9000800A676F7751800A6759D8A0D2EF0DF09D
:101BA000D4EF0DF04AEF0DF091C515F592C516F57D
:101BB00093C517F594C518F5000E196E000E1A6E30
:101BC000A00E1B6E400E1C6E7CEC12F015C586F547
:101BD00016C587F517C588F518C589F582C52EF590
:101BE00083C52FF584C530F585C531F586C532F539
:101BF00087C533F588C534F589C535F58DEC1AF000
:101C0000D8B005EF0EF007EF0EF012EF0EF0000E59
:101C10000501866F000E876F000E886F000E896FBA
:101C20003BEF0EF082C503F583C504F584C505F5C9
:101C300085C506F586C507F587C508F588C509F584
:101C400089C50AF515EC1DF0D8A029EF0EF02BEF91
:101C50000EF03BEF0EF0050174B131EF0EF033EFF3
:101C60000EF03BEF0EF0000E866F000E876F000E39
:101C7000886F000E896F8BC503F58CC504F58DC583
:101C800005F58EC506F586C507F587C508F588C52F
:101C900009F589C50AF521EC10F003C582F504C5E4
:101CA00083F505C584F506C585F582C52EF583C582
:101CB0002FF584C530F585C531F5000E196E000E7F
:101CC0001A6E200E1B6E410E1C6E7CC515F57DC56F
:101CD00016F57EC517F57FC518F57CEC12F015C515
:101CE00032F516C533F517C534F518C535F58DEC45
:101CF0001AF0D8A07EEF0EF080EF0EF0A9EF0EF0F4
:101D00000501784B792B7CC515F57DC516F57EC58B
:101D100017F57FC518F5000E196E000E1A6E200E0D
:101D20001B6E410E1C6E7CEC12F015C57CF516C5C1
:101D30007DF517C57EF518C57FF5660E050173198B
:101D4000D8A4A5EF0EF0A7EF0EF0A9EF0EF0764B9A
:101D5000772B7CC591F57DC592F57EC593F57FC542
:101D600094F578C569F579C56AF50501716B000EC2
:101D70006E6F000E6D6F000E816F000E806FA6EF0C
:101D80000FF082C52EF583C52FF584C530F585C5C6
:101D900031F591C532F592C533F593C534F594C547
:101DA00035F58FEC14F02EC547F52FC548F530C535
:101DB00049F531C54AF562EC17F047C586F548C5C7
:101DC00087F549C588F54AC589F586C503F587C5F0
:101DD00004F588C505F589C506F50AEC1AF004BEB8
:101DE000FDEF0EF0045007E10A0E035CD8B0FBEFE4
:101DF0000EF0FDEF0EF00DEF0FF086C503F587C571
:101E000004F588C505F589C506F50AEC1AF003C581
:101E100074F504C575F512EF0FF0000E0501756F2E
:101E2000090E746F05017151D8A419EF0FF01BEF63
:101E30000FF043EF0FF06ABF22EF0FF020EF0FF02B
:101E400043EF0FF0000E8F25D96E060E9021DA6E4B
:101E50002E0EDF6E8F4B902B7A07D8A07B07010EDA
:101E6000716F43EF0FF0000E8F25D96E060E902193
:101E7000DA6E300EDF6E8F4B902B7A07D8A07B077F
:101E80006D07D8A06E076D516E11D8A44AEF0FF000
:101E90004CEF0FF033EF0FF0000E8F25D96E060ECA
:101EA0009021DA6E7451300FDF6E8F4B902B7A07D2
:101EB000D8A07B0782C52EF583C52FF584C530F5E4
:101EC00085C531F586C519F587C51AF588C51BF591
:101ED00089C51CF591C515F592C516F593C517F57D
:101EE00094C518F57CEC12F015C532F516C533F51E
:101EF00017C534F518C535F597EC1EF02EC582F5DB
:101F00002FC583F530C584F531C585F591C52EF50E
:101F100092C52FF593C530F594C531F5000E326E9C
:101F2000000E336E200E346E410E356E8FEC14F0C1
:101F30002EC591F52FC592F530C593F531C594F5B1
:101F400005016907D8A06A07804B812B7651805D17
:101F50008151800A676F7751800A6759D8B0B3EF13
:101F60000FF0B5EF0FF0C3EF0FF090BFC1EF0FF020
:101F7000905109E14B0E8F5DD8A0C1EF0FF0C3EF78
:101F80000FF0C1EF0EF0000E816F4F0E806F000E4C
:101F90008025D96E060E8121DA6EDF6A000E676F2A
:101FA000060E686F8F51675F9051685B805167259F
:101FB000036E81516821046E000E056E060E066EDA
:101FC0008FC507F590C508F56FEC1EF005018F5120
:101FD000805D8F6F90518159906F8A51D8A4F3EF33
:101FE0000FF0F6EF0FF0010EF7EF0FF0000E806F1D
:101FF000816B8A51D8B4FFEF0FF001EF10F00CEFB6
:1020000010F08F07D8A09007000E8F25D96E060E0E
:102010009021DA6E8AC5DFF480517A5F81517B5B53
:1020200060C515F561C516F5000E8F25176E060EF5
:102030009021186E7AC519F57BC51AF5BBEC1DF019
:1020400012000650800B0F6E06500624116E05AE6E
:102050002CEF10F02EEF10F02FEF10F01180115038
:10206000D8B435EF10F037EF10F04BEF10F0112827
:10207000D8A43DEF10F03FEF10F047EF10F0000E46
:10208000036E000E046E000E056E000E066E058EC9
:10209000066A53EF10F0000E036E000E046E000E81
:1020A000056E000E066E0A50800B106E0F50101851
:1020B000D8B45DEF10F05FEF10F060EF10F00F8C10
:1020C0000A500A24106E09AE68EF10F06AEF10F0A3
:1020D0006BEF10F010801050D8B471EF10F073EF68
:1020E00010F087EF10F01028D8A479EF10F07BEFF4
:1020F00010F083EF10F0000E076E000E086E000E59
:10210000096E000E0A6E098E0A6A8FEF10F0000E3B
:10211000076E000E086E000E096E000E0A6E11505A
:10212000105CD8B096EF10F098EF10F0BFEF10F001
:102130000FAC9DEF10F09FEF10F0A1EF10F0800EAC
:102140000F1A11C512F510C511F512C510F503C50A
:1021500012F507C503F512C507F504C512F508C544
:1021600004F512C508F505C512F509C505F512C532
:1021700009F506C512F50AC506F512C50AF5126A73
:10218000115010C50BF50C6A0B5E000E0C5A0CBEFC
:10219000D3EF10F00C5009E11A0E0B5CD8A0D3EF6E
:1021A00010F0D5EF10F00CEF11F0035004100510F3
:1021B0000610D8A4DEEF10F0E1EF10F0010EE2EF10
:1021C00010F0000E126E000E036E000E046E000E74
:1021D000056E000E066E10C511F515EF11F012A078
:1021E000F4EF10F0F6EF10F0FCEF10F0D890123092
:1021F0000109126EFEEF10F0D890123203A003EF27
:1022000011F005EF11F006EF11F0128E06340632D0
:10221000053204320332112A1050115CD8A013EF9A
:1022200011F015EF11F0EFEF10F00FBC1AEF11F0F5
:102230001CEF11F05CEF11F01150D8A422EF11F057
:1022400024EF11F02EEF11F0000E036E000E046E5D
:10225000000E056E000E066E7BEF12F0075003268F
:1022600008500422095005220A50062206A03BEF1E
:1022700011F03DEF11F0E9EF11F012A042EF11F073
:1022800044EF11F04AEF11F0D89012300109126EAC
:102290004CEF11F0D890123203A051EF11F053EF30
:1022A00011F054EF11F0128E06340632053204326A
:1022B0000332112AE9EF11F00750035C085004586B
:1022C000095005580650800A0B6E0A50800A0B58B8
:1022D000D8B06DEF11F06FEF11F09AEF11F00350DD
:1022E000075C0B6E045008580C6E055009580D6EB3
:1022F00006500A580E6EFF0E0B24036EFF0E0C20C4
:10230000046EFF0E0D20056EFF0E0E20066E800E71
:102310000F1A126C1250D8A490EF11F092EF11F036
:10232000A2EF11F0010E0326000E04220522062260
:10233000A2EF11F00750035E0850045A0950055AE5
:102340000A50065A0350041005100610D8A4ABEF2B
:1023500011F0ADEF11F0E2EF11F01250D8A4B3EF8D
:1023600011F0B5EF11F0E2EF11F0000E036E000E68
:10237000046E000E056E000E066E7BEF12F0D89014
:10238000033604360536063612AEC9EF11F0CBEF30
:1023900011F0CCEF11F0038012A0D1EF11F0D3EFC8
:1023A00011F0D7EF11F0D8801236D9EF11F0D89094
:1023B00012361150D8B4DFEF11F0E1EF11F0E2EF77
:1023C00011F0110605AEE7EF11F0E9EF11F0BFEFE4
:1023D00011F0106A12AEEFEF11F0F1EF11F009EF0A
:1023E00012F012C50BF57F0E0B16D8B4FAEF11F0F0
:1023F000FCEF11F000EF12F0010E106E09EF12F079
:1024000003A005EF12F007EF12F009EF12F0FCEF56
:1024100011F01050D8B40FEF12F011EF12F03CEFA2
:1024200012F0010E0326000E04220522062206A049
:102430001CEF12F01EEF12F03CEF12F003C50BF58B
:1024400004C50CF505C50DF506C50EF50E340E32A6
:102450000D320C320B320BC503F50CC504F50DC55E
:1024600005F50EC506F51128D8B439EF12F03BEF8B
:1024700012F03CEF12F0112A1128D8B442EF12F0FA
:1024800044EF12F04CEF12F01150D8A44AEF12F0C2
:102490004CEF12F05DEF12F0000E036E000E046EB2
:1024A000000E056E000E066E1150D8A45AEF12F001
:1024B0005CEF12F05DEF12F00F6A11A062EF12F004
:1024C00064EF12F067EF12F0058E68EF12F0059ED0
:1024D000D8901130066E0FAE70EF12F072EF12F05E
:1024E00073EF12F0068E03C503F504C504F505C5A8
:1024F00005F506C506F512001850800B216E185020
:102500001824276E17AE87EF12F089EF12F08AEFCA
:1025100012F027802750D8B490EF12F092EF12F00B
:10252000A5EF12F02728D8A498EF12F09AEF12F036
:10253000A2EF12F0000E156E000E166E000E176E52
:10254000000E186E178EADEF12F0000E156E000E15
:10255000166E000E176E000E186E1C50800B211A9E
:102560001C501C24266E1BAEB8EF12F0BAEF12F00E
:10257000BBEF12F026802650D8B4C1EF12F0C3EFA3
:1025800012F0D6EF12F02628D8A4C9EF12F0CBEF44
:1025900012F0D3EF12F0000E196E000E1A6E000E3C
:1025A0001B6E000E1C6E1B8EDEEF12F0000E196EFD
:1025B000000E1A6E000E1B6E000E1C6E2650D8B454
:1025C000E4EF12F0E6EF12F0EEEF12F02750D8A48D
:1025D000ECEF12F0EEEF12F0F8EF12F0000E156EC5
:1025E000000E166E000E176E000E186E8EEF14F0B1
:1025F0001B501502F3C42CF5F4C42DF52C50226E9B
:10260000236A246A256A2D50286E296A2A6A2B6A51
:102610001A501602F3C42CF5F4C42DF52C502226C2
:10262000000E2322242225222D502826000E2922A6
:102630002A222B2219501702F3C42CF5F4C42DF5CD
:102640002C502226000E2322242225222D5028261B
:10265000000E29222A222B2224C525F523C524F584
:1026600022C523F5226A19501602F3C42CF5F4C4CE
:102670002DF52C5022262D502322000E2422000E50
:1026800025221A501502F3C42CF5F4C42DF52C5054
:1026900022262D502322000E2422000E252224C59E
:1026A00025F523C524F522C523F5226A1950150204
:1026B000F3C42CF5F4C42DF52C5022262D502322E2
:1026C000000E2422000E25221B501602F3C42CF506
:1026D000F4C42DF52C5028262D502922000E2A2234
:1026E000000E2B221A501702F3C42CF5F4C42DF55A
:1026F0002C5028262D502922000E2A22000E2B2293
:102700001B501702F3C42CF5F4C42DF52C501D6E8C
:102710002D501E6E1F6A206A1FC520F51EC51FF5AD
:102720001DC51EF51D6A1D5028261E5029221F504A
:102730002A2220502B2222C51DF523C51EF524C5B3
:102740001FF525C520F5190EABEF13F0D8902032F8
:102750001F321E321D32E82EA6EF13F01D50282620
:102760001E5029221F502A2220502B2224C525F535
:1027700023C524F522C523F5226A265027C51DF559
:102780001E6A1D26000E1E22820E1D242C6EFF0EB8
:102790001E202D6EE1EF13F0D890283629362A3608
:1027A0002B3625AED6EF13F0D8EF13F0D9EF13F098
:1027B0002880D89022362336243625362C06D8A0F9
:1027C0002D062AAEE6EF13F0E8EF13F0CCEF13F08E
:1027D000266A25AEEEEF13F0F0EF13F014EF14F0CD
:1027E000FF0E22141D6EFF0E23141E6EFF0E241406
:1027F0001F6E7F0E2514206E1D501E101F102010FE
:10280000D8B405EF14F007EF14F00BEF14F0010E3D
:10281000266E14EF14F028A010EF14F012EF14F04D
:1028200014EF14F007EF14F02650D8B41AEF14F098
:102830001CEF14F040EF14F0010E2826000E2922A0
:102840002A222B222BA027EF14F029EF14F040EFBF
:1028500014F028C51DF529C51EF52AC51FF52BC581
:1028600020F5203420321F321E321D321DC528F5BE
:102870001EC529F51FC52AF520C52BF52C4A2D2A82
:102880002DBE4BEF14F02D5008E12C28D8A04BEFB3
:1028900014F04DEF14F057EF14F0000E286E000EF8
:1028A000296E800E2A6E7F0E2B6E84EF14F02DBEE3
:1028B00064EF14F02D5006E12C04D8B062EF14F050
:1028C00064EF14F06FEF14F0000E286E000E296E06
:1028D000000E2A6E000E2B6E216A84EF14F02CC5B8
:1028E00027F5FF0E2816FF0E29167F0E2A16000E5A
:1028F0002B1627A07EEF14F080EF14F081EF14F078
:102900002A8ED89027302B6E21502B1228C515F512
:1029100029C516F52AC517F52BC518F51200315033
:10292000800B3E6E31503124456E30AE9AEF14F07C
:102930009CEF14F09DEF14F045804550D8B4A3EF00
:1029400014F0A5EF14F0B9EF14F04528D8A4ABEFBC
:1029500014F0ADEF14F0B5EF14F0000E2E6E000E73
:102960002F6E000E306E000E316E308E316AC1EF68
:1029700014F0000E2E6E000E2F6E000E306E000E44
:10298000316E3550800B3E1A35503524466E34AECC
:10299000CCEF14F0CEEF14F0CFEF14F04680465099
:1029A000D8B4D5EF14F0D7EF14F0EBEF14F04628BD
:1029B000D8A4DDEF14F0DFEF14F0E7EF14F0000E11
:1029C000326E000E336E000E346E000E356E348E95
:1029D000356AF3EF14F0000E326E000E336E000E07
:1029E000346E000E356E3250331034103510D8A4CA
:1029F000FCEF14F0FEEF14F016EF15F0000E2E6E43
:102A0000000E2F6E000E306E000E316E800E3012F2
:102A10007F0E31123E5031122EC52EF52FC52FF5E7
:102A200030C530F531C531F556EF16F04550D8A414
:102A30001CEF15F01EEF15F028EF15F0000E2E6EAE
:102A4000000E2F6E000E306E000E316E56EF16F037
:102A5000465045C536F5376A365E000E375A7F0E4A
:102A600036243F6E000E3720406E2EC53AF52FC536
:102A70003BF530C53CF531C53DF5000E2E6E000E20
:102A80002F6E000E306E000E316E000E416E000E85
:102A9000426E000E436E000E446E466A88EF15F0DB
:102AA0004650D8B456EF15F058EF15F06FEF15F00B
:102AB000D8903A363B363C363D36D8902E362F36B7
:102AC0003036313644AE67EF15F069EF15F06AEF36
:102AD00015F02E80D8904136423643364436325077
:102AE0003A5C33503B5834503C5835503D58D8A090
:102AF0007CEF15F07EEF15F087EF15F0448C325027
:102B00003A5E33503B5A34503C5A35503D5A462A6F
:102B1000190E46648EEF15F090EF15F050EF15F09A
:102B20003A503B103C103D10D8B499EF15F09BEF94
:102B300015F0B3EF15F04180B3EF15F0D8902E36B5
:102B40002F363036313644AEA8EF15F0AAEF15F027
:102B5000ABEF15F02E80D8904136423643364436DE
:102B60003F06D8A0400630AEB8EF15F0BAEF15F02A
:102B70009EEF15F0466A44AEC0EF15F0C2EF15F0B7
:102B8000E6EF15F0FF0E4114366EFF0E4214376E5D
:102B9000FF0E4314386E7F0E4414396E36503710D2
:102BA00038103910D8B4D7EF15F0D9EF15F0DDEFA4
:102BB00015F0010E466EE6EF15F02EA0E2EF15F0CF
:102BC000E4EF15F0E6EF15F0D9EF15F04650D8B464
:102BD000ECEF15F0EEEF15F012EF16F0010E2E26C9
:102BE000000E2F223022312231A0F9EF15F0FBEF39
:102BF00015F012EF16F02EC536F52FC537F530C596
:102C000038F531C539F53934393238323732363260
:102C100036C52EF537C52FF538C530F539C531F530
:102C20003F4A402A40BE1DEF16F0405008E13F28C1
:102C3000D8A01DEF16F01FEF16F02AEF16F0000EC9
:102C4000406E3F68000E2E6E000E2F6E000E306E2E
:102C5000000E316E40BE37EF16F0405006E13F04E3
:102C6000D8B035EF16F037EF16F044EF16F0000E3F
:102C7000406E000E3F6E000E2E6E000E2F6E000E88
:102C8000306E000E316E3E6A3FC545F545A04BEFF4
:102C900016F04DEF16F050EF16F0308E51EF16F0A3
:102CA000309ED8904530316E0AEF15F0120097C56E
:102CB000D9F498C5DAF4DFC4F6F4160EF76EF86AA4
:102CC0000800F550250AD8A468EF16F06AEF16F050
:102CD0004CEF17F097C5D9F498C5DAF4DF2A000E47
:102CE0000501C06F000EBF6FBFC5D9F5C169C269CC
:102CF00097C5D9F498C5DAF4DFC4F6F4160EF76E6A
:102D0000F86A0800F5502E0AD8A489EF16F08BEF68
:102D100016F09EEF16F097C5D9F498C5DAF4DF2ABD
:102D200097C503F598C504F599C505F59AC506F547
:102D30005BEC1CF003C5C1F504C5C2F597C5D9F419
:102D400098C5DAF4DF500501A26FA2C5F6F4160E9D
:102D5000F76EF86A0800F5C4A1F5B9EF16F0A22BDA
:102D6000C8EF16F06C0EA16FC8EF16F0A16BC8EF9C
:102D700016F0A1514C0AD8B4AFEF16F02A0AD8B415
:102D8000B2EF16F00A0AD8B4AFEF16F0B6EF16F0AD
:102D9000A2C5F6F4160EF76EF86A0800F550660A3A
:102DA000D8A4D5EF16F0D7EF16F045EF17F00DEFDA
:102DB00017F099C5D9F49AC5DAF4DFC49BF5040E6F
:102DC000DE26DFC49CF5000EDD229BC5D9F49CC530
:102DD000DAF4DEC49DF5DEC49EF5DEC49FF5DEC4E4
:102DE000A0F518EF17F099C5D9F49AC5DAF4DFC445
:102DF0009BF5040EDE26DFC49CF5000EDD229BC58C
:102E0000D9F49CC5DAF4DEC49DF5DEC49EF5DEC4BB
:102E10009FF5DEC4A0F518EF17F0A1514C0AD8B405
:102E2000F3EF16F0200AD8B4D9EF16F018EF17F028
:102E3000A22997C5D9F498C5DAF4DF6E38EF17F0F8
:102E400095C560F596C561F59DC562F59EC563F5AE
:102E50009FC564F5A0C565F5A2C5F6F4160EF76E1C
:102E6000F86A0800F5C466F52BEC0BF061EF17F07B
:102E7000A2C5F6F4160EF76EF86A0800F550660A59
:102E8000D8B420EF17F045EF17F097C5D9F498C5DF
:102E9000DAF4DF2A61EF17F097C5D9F498C5DAF4B0
:102EA000DFC4F6F4160EF76EF86A0800F550056EEA
:102EB000066A95C507F596C508F5F6EC1BF045EFD3
:102EC00017F01200B7C557F5B8C558F5B9C559F58B
:102ED000BAC55AF547C557F548C558F549C559F516
:102EE0004AC55AF5810E4B6EFF0E4C6E57C54DF517
:102EF00058C54EF559C54FF55AC550F5180E86EF11
:102F000017F0D89050324F324E324D32E82E81EFCA
:102F100017F04D504B24556E000E4C20566E56BE89
:102F20009BEF17F0565009E1170E555CD8A09BEFA8
:102F300017F09DEF17F0A7EF17F047C547F548C505
:102F400048F549C549F54AC54AF56AEF18F056BE35
:102F5000ACEF17F0AEEF17F01EEF18F055C54BF5BC
:102F6000FF0E4C6EFF0E4D6E7F0E4E6E000E4F6EBE
:102F70004B66BDEF17F0C5EF17F04F344F324E32AE
:102F80004D324C324B2EB8EF17F04CC551F54DC5B4
:102F900052F54EC553F54FC554F5515057144B6E6D
:102FA000525058144C6E535059144D6E54505A147C
:102FB0004E6E4B504C104D104E10D8A4E2EF17F04F
:102FC000E4EF17F0E6EF17F09DEF17F057C54BF55C
:102FD00058C54CF559C54DF55AC54EF5200EF6EFBE
:102FE00017F0D8904E324D324C324B32E82EF1EF82
:102FF00017F04B504C104D104E10D8B402EF18F093
:1030000004EF18F00CEF18F0515057265250582288
:103010005350592254505A22511C4B6E521C4C6E24
:10302000531C4D6E541C4E6E4B5057164C50581638
:103030004D5059164E505A1662EF18F057C54BF5C1
:1030400058C54CF559C54DF55AC54EF5200E2EEF15
:1030500018F0D8904E324D324C324B32E82E29EFD8
:1030600018F04B504C104D104E10D8A43AEF18F0F9
:103070003CEF18F046EF18F0000E576E000E586E39
:10308000000E596E000E5A6E62EF18F0D890573449
:103090004B6E58344C6E59344D6E5A344E6E4B5004
:1030A0004C104D104E10D8B458EF18F05AEF18F0DD
:1030B00062EF18F0000E576E000E586E800E596EBB
:1030C000BF0E5A6E57C547F558C548F559C549F55D
:1030D0005AC54AF512000F6E0F50D8B472EF18F0AF
:1030E00074EF18F096EF18F00ABE7BEF18F079EF46
:1030F00018F096EF18F007C50BF508C50CF509C5D3
:103100000DF50AC50EF50B1E0C1E0D1E0E1E0B2A0C
:10311000000E0C220D220E220BC511F50CC512F566
:103120000DC513F50EC514F59EEF18F007C511F582
:1031300008C512F509C513F50AC514F5075008109E
:1031400009100A10D8A4A7EF18F0A9EF18F0B3EFF0
:1031500018F0000E076E000E086E000E096E000ECD
:103160000A6E44EF19F0960E106EBDEF18F0102A9B
:10317000D8901432133212321132000E11140B6E29
:10318000000E12140C6E000E13140D6EFE0E1414AD
:103190000E6E0B500C100D100E10D8A4D2EF18F0BC
:1031A000D4EF18F0B7EF18F0E2EF18F0102A010E84
:1031B0001126000E122213221422D8901432133238
:1031C00012321132000E11140B6E000E12140C6E1E
:1031D000000E13140D6EFF0E14140E6E0B500C1017
:1031E0000D100E10D8A4F7EF18F0F9EF18F0D6EF85
:1031F00018F001EF19F01006D89011361236133678
:10320000143613BE06EF19F008EF19F010EF19F09D
:10321000020E10600EEF19F010EF19F0FBEF18F02E
:1032200010B015EF19F017EF19F018EF19F0139E01
:10323000D890103210C50BF50C6A0D6A0E6A0BC5DA
:103240000EF50D6A0C6A0B6A0B5011120C5012121B
:103250000D5013120E5014120F50D8B432EF19F053
:1032600034EF19F03CEF19F00ABE3BEF19F039EFDB
:1032700019F03CEF19F0148E11C507F512C508F5C9
:1032800013C509F514C50AF51200D9EC1FF0D68E46
:103290000501B16B010EB26F0501B15112EC20F0C6
:1032A00016EC20F0E4EC1FF00009D8B45AEF19F046
:1032B0005CEF19F052EF19F0330E196E330E1A6EDF
:1032C000530E1B6E400E1C6EC0EC1FF003C507F5BD
:1032D00004C508F5000E08BEFF0E096E0A6E010E49
:1032E0006BEC18F007C515F508C516F509C517F5F7
:1032F0000AC518F57CEC12F015C52EF516C52FF58C
:1033000017C530F518C531F5000E326E200E336E3C
:103310007B0E346E450E356E8FEC14F02EC5B3F572
:103320002FC5B4F530C5B5F531C5B6F5310E05017B
:10333000A86FB3C5A9F5B4C5AAF5B5C5ABF5B6C5B3
:10334000ACF575EC1FF00501B25112EC20F016EC53
:1033500020F0E4EC1FF00009D8B4B1EF19F0B3EF9E
:1033600019F0A9EF19F0330E196E330E1A6E530EC1
:103370001B6E400E1C6EC0EC1FF003C507F504C5A4
:1033800008F5000E08BEFF0E096E0A6E010E6BEC0A
:1033900018F007C515F508C516F509C517F50AC5CE
:1033A00018F57CEC12F015C52EF516C52FF517C5CE
:1033B00030F518C531F5000E326E200E336E7B0EDF
:1033C000346E450E356E8FEC14F02EC5B3F52FC557
:1033D000B4F530C5B5F531C5B6F53F0E0501A86F9A
:1033E000B3C5A9F5B4C5AAF5B5C5ABF5B6C5ACF579
:1033F00075EC1FF0F40E0501B06F820EAF6F050E75
:10340000E82EFED7AF2FFCD7B02FFAD74CEF19F02C
:103410000DEF00F0053406340C6E0C50D8A413EFF9
:103420001AF015EF1AF01FEF1AF0000E036E000EDF
:10343000046E000E056E000E066E8CEF1AF003C5CA
:1034400007F504C508F505C509F506C50AF5200EFA
:103450002FEF1AF0D8900A32093208320732E82EDC
:103460002AEF1AF007500B6E058EFF0E0316FF0EA3
:103470000416FF0E0516000E0616960E0C5E0CBE08
:1034800046EF1AF044EF1AF05CEF1AF00C50800A85
:10349000970FD8B04EEF1AF050EF1AF052EF1AF023
:1034A00015EF1AF0D89006320532043203320C3E82
:1034B00052EF1AF074EF1AF01F0E0C6462EF1AF05C
:1034C00064EF1AF06CEF1AF015EF1AF0D89003368B
:1034D0000436053606360C060C50D8A472EF1AF0E6
:1034E00074EF1AF066EF1AF00B50D8B47AEF1AF0B6
:1034F0007CEF1AF084EF1AF0061E051E041E036C02
:10350000000E04220522062203C503F504C504F5B6
:1035100005C505F506C506F51200000E2E14366E1B
:10352000000E2F14376E800E3014386E7F0E31145B
:10353000396E3650371038103910D8A4A2EF1AF06F
:10354000A4EF1AF0ACEF1AF0000E2E6E000E2F6EE4
:10355000000E306E000E316E000E3214366E000E0C
:103560003314376E800E3414386E7F0E3514396E76
:103570003650371038103910D8A4C1EF1AF0C3EF05
:103580001AF0CBEF1AF0000E326E000E336E000E02
:10359000346E000E356E31AED0EF1AF0D2EF1AF065
:1035A000DBEF1AF02E6C2F1ED8B02F2A301ED8B0A9
:1035B000302A800E315635AEE0EF1AF0E2EF1AF005
:1035C000EBEF1AF0326C331ED8B0332A341ED8B069
:1035D000342A800E3556000E2E1A000E2F1A000EB9
:1035E000301A800E311A000E321A000E331A000EF5
:1035F000341A800E351A32502E5C33502F58345006
:10360000305835503158D8B008EF1BF00AEF1BF096
:103610000DEF1BF0D8900EEF1BF0D8801200BBC549
:103620000DF5BCC50EF5BDC50FF5BEC510F503C53E
:103630000DF504C50EF505C50FF506C510F50DC54C
:1036400007F50EC508F50FC509F510C50AF5180EE2
:103650002FEF1BF0D8900A32093208320732E82ED9
:103660002AEF1BF007500B6E0C6A0B500C10D8A4FD
:103670003CEF1BF03EEF1BF05EEF1BF0D8900D34DB
:10368000076E0E34086E0F34096E10340A6E075040
:10369000081009100A10D8A450EF1BF052EF1BF0CD
:1036A00058EF1BF0000E046E020E036E8DEF1BF040
:1036B000000E046E030E036E8DEF1BF00B280C1032
:1036C000D8A465EF1BF067EF1BF089EF1BF00DC569
:1036D00007F50EC508F50FC509F510C50AF5090E61
:1036E000D8900736083609360A36E82E70EF1BF0F8
:1036F0000750081009100A10D8B481EF1BF084EFAE
:103700001BF0010E85EF1BF0000E036E046A8DEFB7
:103710001BF0000E046E040E036E12000301F39FF3
:10372000F96B1F0EFA6F0101106B116B126B136BAB
:10373000146B010E0301FB6FD96BDA6BDB6BDC6B77
:10374000DF6BE06BE36BE46BE56BE66BE76BEA6BFF
:10375000EB6B020EEC6F3B0EED6F010EEE6FEF6B3D
:10376000F06BF16BF26BF39DF46B1B0EF56FF66B68
:10377000F76BF86BFD6BFB6BD96BDA6BDB6BDC6BA0
:10378000DF6BE06BE36BE46BE56BE66BE76BEA6BBF
:10379000EB6B010EEC6F3B0EED6F010EEE6FEF6BFE
:1037A000F06BF16BF26BF39DF46B1B0EF56FF66B28
:1037B000F76BF86BFC6B000E0501C76F000EC86F4E
:1037C000000EC56F000EC66F000EC36F000EC46FF3
:1037D000B394A894B392A892B39AA89AB39CA89CC5
:1037E000B39EA89E940E0301F36F120007500810B9
:1037F000D8B4FDEF1BF0FFEF1BF008EF1CF00750F3
:103800000810D8A406EF1CF008EF1CF00DEF1CF018
:10381000055087EC1FF05AEF1CF020EE09F007501E
:10382000D9260850DA22DE50DE10D8B41AEF1CF088
:103830001CEF1CF037EF1CF020EE09F00750D926E2
:103840000850DA2210EE02F00750E1260850E2227A
:10385000DE50E65CE650800A0D6EDE50800A0D58A0
:10386000D8B035EF1CF037EF1CF05AEF1CF020EE0B
:1038700002F00750D9260850DA22DEC409F5DDC46B
:103880000AF507C5D9F408C5DAF4DEC40BF5DDC4C2
:103890000CF509500B24D96E0A500C20DA6E05C5C0
:1038A000DFF420EE02F00750D9260850DA22DE2A93
:1038B000000EDD221200000E0B6E000E0A6E03C514
:1038C000D9F404C5DAF4DFC4F6F4160EF76EF86A1C
:1038D0000800F5502A0AD8A470EF1CF072EF1CF013
:1038E000A1EF1CF003C5D9F404C5DAF4DF2A05C53D
:1038F000D9F406C5DAF4DFC407F5020EDE26DFC40C
:1039000008F5000EDD2207C5D9F408C5DAF4DEC4D7
:103910000AF5DDC40BF5B6EF1CF00A0E0A02F3C47B
:1039200007F5F4C408F50B02F350082609500724E4
:103930000A6E000E08200B6E03C5D9F404C5DAF434
:10394000DF2A03C5D9F404C5DAF4DFC4F6F4160E91
:10395000F76EF86A0800F550D00F096E090E096479
:10396000B4EF1CF0B6EF1CF08DEF1CF00AC503F5A8
:103970000BC504F512000101406B416B426B436BB8
:10398000446B456B0401026B0A6B126B1A6B226B62
:103990002A6B01014869EF0E496F7F0E4A6F4B6930
:1039A0000F0E4C6F4D69FE0E0401006FCF0E086FB5
:1039B0007F0E106F1869070E206F2869010E016FC6
:1039C000096B116B196B216B296B03690B69136907
:1039D0001B69070E236F2B6904690C6914691C6944
:1039E0000F0E246F2C690201866B856B886B876BC9
:1039F0000D0E746F180E0D6F010E0401056F066B2E
:103A0000076B3D6B3E6B3F6B0D6B0E6B0F6B156B5E
:103A1000166B176B256B266B276B3E0E036E400EE5
:103A2000046EFAEC1FF0A78E1200000E03140B6E4A
:103A3000000E04140C6E800E05140D6E7F0E06141D
:103A40000E6E0B500C100D100E10D8A42AEF1DF0A6
:103A50002CEF1DF034EF1DF0000E036E000E046E0F
:103A6000000E056E000E066E000E07140B6E000EA3
:103A700008140C6E800E09140D6E7F0E0A140E6E63
:103A80000B500C100D100E10D8A449EF1DF04BEF89
:103A90001DF053EF1DF0000E076E000E086E000EB5
:103AA000096E000E0A6E075003180FE10850041843
:103AB0000CE10950051809E10A500618D8B463EF63
:103AC0001DF065EF1DF068EF1DF0D89069EF1DF057
:103AD000D8801200FAC401F5FBC402F5A7AE73EF5B
:103AE0001DF075EF1DF080EF1DF0B2AE7AEF1DF006
:103AF0007CEF1DF080EF1DF0EFEC1FF0B6EF1DF036
:103B0000A8A485EF1DF087EF1DF092EF1DF0B3A480
:103B10008CEF1DF08EEF1DF092EF1DF019EC20F0F0
:103B2000B6EF1DF0A8A297EF1DF099EF1DF0A4EFDE
:103B30001DF0B3A29EEF1DF0A0EF1DF0A4EF1DF04D
:103B40001DEC20F0B6EF1DF0A8AAA9EF1DF0ABEF19
:103B50001DF0B6EF1DF0B3AAB0EF1DF0B2EF1DF0EF
:103B6000B6EF1DF01BEC20F0B6EF1DF002C5FBF424
:103B700001C5FAF411001ABEC2EF1DF0C0EF1DF02E
:103B8000C6EF1DF0000E1A6E000E196E000E1D6EAF
:103B9000000E1C6ED8EF1DF0000E066E200E056E96
:103BA00015C507F516C508F5F6EC1BF01C4A1D2ACD
:103BB00019501C5C1D50800A1B6E1A50800A1B583D
:103BC000D8A0E5EF1DF0E7EF1DF0CCEF1DF017C515
:103BD0000EF518C50FF515C510F516C511F5BAEC9B
:103BE0001EF0120006BEF7EF1DF0F9EF1DF003EF17
:103BF0001EF003C503F504C504F505C505F506C5A6
:103C000006F51CEF1EF003C507F504C508F505C54C
:103C100009F506C50AF5071E081E091E0A1E072A11
:103C2000000E082209220A2207C503F508C504F57B
:103C300009C505F50AC506F512000201B86BBA6B95
:103C4000BC6BB00EBE6F800EBF6FC06B8A0EC16FB3
:103C5000C26B2E0EC36FC46B800EC56FC66B000E99
:103C6000036E000E046EB2EC1FF0000E036E000E29
:103C7000046EA4EC1FF0000E036E000E046E96ECB2
:103C80001FF0000E0501D06F000ECF6F1200A5C50A
:103C90005BF55AEF1EF0A3C595F5A4C596F55B0E2E
:103CA0000501976F050E986FA6C599F5A7C59AF5FA
:103CB00057EC16F05BC5F6F4160EF76EF86A0800BE
:103CC000F5500009D8A467EF1EF069EF1EF04BEF26
:103CD0001EF0000E0501A46F000EA36F120005C5B3
:103CE0000BF506C50CF503C509F504C50AF589EF02
:103CF0001EF00BC5D9F40CC5DAF4DF500D6E0B4A7B
:103D00000C2A09C5D9F40AC5DAF40DC5DFF4094A4D
:103D10000A2A0706D8A00806072806E10828D8A41A
:103D200094EF1EF096EF1EF079EF1EF01200000ED9
:103D3000321A000E331A000E341A800E351A2EC5B0
:103D400003F52FC504F530C505F531C506F532C5B7
:103D500007F533C508F534C509F535C50AF521EC75
:103D600010F003C52EF504C52FF505C530F506C5C1
:103D700031F51200000E146E000E136ECBEF1EF024
:103D800012C505F5066A10C507F511C508F5F6EC6C
:103D90001BF0134A142A13500E24D96E14500F200E
:103DA000DA6EDF50126E1250D8A4D9EF1EF0DBEF9E
:103DB0001EF0C0EF1EF0120003C507F504C508F59C
:103DC000052A0504066E06C5F6F4160EF76EF86AA7
:103DD00007C5D9F408C5DAF4074A082A0800F5C46B
:103DE000DFF4DF50D8A4F7EF1EF0F9EF1EF0E0EF9C
:103DF0001EF012000350041005100610D8B403EF93
:103E00001FF005EF1FF00DEF1FF0000E031A000E5C
:103E1000041A000E051A800E061A03C503F504C520
:103E200004F505C505F506C506F51200D69AB3904A
:103E3000D680000E036E000E046E09EC20F0B890E0
:103E4000D682000E036E000E046E04EC20F0BC90CF
:103E5000D684000E036E000E046EFFEC1FF01200FD
:103E60000501DA51DB11D8B438EF1FF03AEF1FF03B
:103E700046EF1FF002D846EF1FF00500FA6EDA5148
:103E8000FD6EDB51FE6EFF6AFA50120004010791CD
:103E9000120001EE00F2500EEE6AE806FDE101EEBE
:103EA000B7F1230EEE6AE806FDE15D6A5C6A040183
:103EB000080E5D6F000E5E6F000E5F6F000145EF34
:103EC00019F0036A0201C3AB68EF1FF06AEF1FF03D
:103ED00073EF1FF0BEAB6FEF1FF071EF1FF073EFCA
:103EE0001FF0010E036E03501200A90E0501AD6F05
:103EF000050EAE6F000EA36F000EA46FA8C5A5F54A
:103F0000AD0EA66F050EA76F47EC1EF01200046EF3
:103F100061EC1FF00009D8B490EF1FF092EF1FF092
:103F200088EF1FF004500EEC20F012000350041034
:103F3000D8B49DEF1FF09FEF1FF0A3EF1FF003C554
:103F4000C9F504C5CAF5120003500410D8B4ABEF8C
:103F50001FF0ADEF1FF0B1EF1FF003C5CBF504C5A7
:103F6000CCF5120003500410D8B4B9EF1FF0BBEF2A
:103F70001FF0BFEF1FF003C5CDF504C5CEF512004D
:103F80000301EA51EBC305F5066A05C506F5056AA6
:103F90000510036E0650046E1200600E0001AD6F36
:103FA000AF6BB36B080EB16FB06BAC6B0401586BA9
:103FB0001200CDEC1FF0BBEC1CF08EEC1BF01DECE6
:103FC0001EF016EC1FF012000301F3A1EAEF1FF040
:103FD000EDEF1FF0010EEEEF1FF0000E12000401D6
:103FE00007A1F5EF1FF0F7EF1FF0F9EF1FF030EC2E
:103FF0001FF0120003C5DAF504C5DBF5120003C596
:10400000D3F504C5D4F5120003C5D5F504C5D6F51E
:10401000120003C5D7F504C5D8F51200036E03C519
:10402000B6F21200036E03C5FBF312000301F38125
:104030001200B3941200B39A1200B392120012004D
:020000040030CA
:0B0000008FFFF7FF9FFF7FFFFFFFFF58
:00000001FF
